:020000040800F2
:1000000000280020910D00084D0C0008530C00083A
:10001000590C00085F0C0008650C00080000000087
:100020000000000000000000000000006B0C000851
:10003000770C000800000000830C00088F0C0008FB
:10004000D90D0008D90D0008D90D0008D90D0008F8
:10005000D90D0008D90D0008D90D0008D90D0008E8
:10006000D90D0008D90D0008D90D0008D90D0008D8
:10007000D90D0008D90D0008D90D0008D90D0008C8
:10008000D90D0008D90D0008D90D0008D90D0008B8
:10009000D90D0008D90D0008D90D0008D90D0008A8
:1000A000D90D0008D90D0008D90D0008D90D000898
:1000B0009D0C0008D90D000800000000D90D0008B3
:1000C000D90D00080000000000000000D90D000854
:1000D00000000000D90D0008D90D00080000000044
:1000E000D90D0008D90D0008D90D00080000000046
:1000F0000000000000000000000000000000000000
:0C01000000000000000000005FF808F1A3
:10010C0010B5054C237833B9044B13B10448AFF345
:10011C0000800123237010BD780000200000000037
:10012C003024000808B5034B1BB103490348AFF357
:10013C00008008BD000000007C0000203024000876
:10014C0080B582B000AF786001224FF47E713248E6
:10015C0001F03FF97B68092B5AD801A252F823F021
:10016C0095010008A3010008AF010008BD010008BB
:10017C00CB010008D9010008E7010008F5010008CF
:10018C00010200080F02000800224FF4FC71224803
:10019C0001F01FF93CE0002230211F4801F019F951
:1001AC0036E000224FF436711B4801F012F92FE0B3
:1001BC0000224FF41E71184801F00BF928E00022C0
:1001CC004FF44C71144801F004F921E000224FF473
:1001DC005A71114801F0FDF81AE000224FF47A71BF
:1001EC000D4801F0F6F813E0002238210A4801F01E
:1001FC00F0F80DE000224FF47E71074801F0E9F8A9
:10020C0006E000224FF45E71034801F0E2F800BFF3
:10021C0000BF0837BD4680BD000C014080B582B0E0
:10022C0000AF786001224FF4FE41334801F0D1F861
:10023C007B68092B5CD801A252F823F071020008EC
:10024C007F0200088D0200089B020008A90200082A
:10025C00B7020008C5020008D3020008E10200083A
:10026C00EF02000800224FF47C51234801F0B1F852
:10027C003EE000224FF4C0611F4801F0AAF837E0BD
:10028C0000224FF4B6411C4801F0A3F830E00022E4
:10029C004FF49E41184801F09CF829E000224FF4DD
:1002AC00CC41154801F095F822E000224FF4DA41D8
:1002BC00114801F08EF81BE000224FF4FA410E4871
:1002CC0001F087F814E000224FF4E0610A4801F0D5
:1002DC0080F80DE000224FF4FE41074801F079F858
:1002EC0006E000224FF4DE41034801F072F800BF33
:1002FC0000BF0837BD4680BD0008014080B483B004
:10030C0000AF7860044A7B68012142F8231000BFDB
:10031C000C37BD4680BC70479400002080B483B07D
:10032C0000AF7860094A7B6852F82330012B06D164
:10033C00064A7B68002142F82310012300E00023C9
:10034C0018460C37BD4680BC704700BF9400002097
:10035C0080B582B000AF00237B6073E03D4A7B68C0
:10036C0052F823203C497B6841F823203B4A7B68A8
:10037C0052F8232037497B6841F82320384A7B68A0
:10038C0052F823309BB21946364801F00BF803465D
:10039C001946324A7B6842F823102E4A7B6852F881
:1003AC0023202D497B6851F823309A4247D1294AA2
:1003BC007B6852F8232029497B6851F823309A42F4
:1003CC003DD1294A7B6852F8232024497B6851F897
:1003DC0023309A4216D0214A7B6852F823202249B6
:1003EC007B6841F823201D4A7B6852F82330002B90
:1003FC0025D17868FFF782FF1C4A7B68642142F89C
:10040C0023101CE0194A7B6852F823305A1E1749F6
:10041C007B6841F82320154A7B6852F82330002B67
:10042C000DD10E4A7B6852F82330002B02D178682C
:10043C00FFF764FF0D4A7B68642142F823107B6848
:10044C0001337B607B68022B88DD00BF00BF08375F
:10045C00BD4680BD0C0000200000002018000020CC
:10046C0030000020000C014024000020400000203F
:10047C0080B500AF164B1B68012B07D180211548A6
:10048C0000F0BFFF0021642000F028FC104B5B68DB
:10049C00012B1BD1104B1B68002B17D10F4B1B686A
:1004AC00013B0E4A13600E4B1B68013B0C4A136058
:1004BC000A4B1B681846FFF743FE094B1B6818468E
:1004CC00FFF7ACFE0121642000F008FC00BF80BDEA
:1004DC00B800002000080140A80000204C000020BB
:1004EC005000002080B500AF314B1B68022B3CD074
:1004FC00022B5ADC002B02D0012B1BD055E0002222
:10050C0001212C4800F065FF01220621294800F04A
:10051C0060FF294B1B68002B42D1284B1B68264AD5
:10052C001360254B1B681846FFF70AFE204B01226F
:10053C001A6035E0002202211E4800F04AFF012219
:10054C0005211C4800F045FF1B4B1B68002B29D1D3
:10055C001B4B1B68184A1360174B1B681846FFF798
:10056C00EFFD134B02221A601CE0002204211148FB
:10057C0000F02FFF012203210E4800F02AFF0E4B42
:10058C001B68002B10D10F4B1B680B4A13600A4BD6
:10059C001B681846FFF7D4FD054B00221A6003E0D8
:1005AC0000BF02E000BF00E000BF00BF80BD00BF85
:1005BC00A0000020000801404C0000205800002042
:1005CC00540000205C00002080B500AF314B1B684C
:1005DC00022B3CD0022B5ADC002B02D0012B1BD05F
:1005EC0055E0002220212C4800F0F3FE01221821B6
:1005FC00294800F0EEFE294B1B68002B42D1284BFA
:10060C001B68264A1360254B1B681846FFF706FE2D
:10061C00204B02221A6035E0002210211E4800F007
:10062C00D8FE012228211C4800F0D3FE1B4B1B686E
:10063C00002B29D11B4B1B68184A1360174B1B68E6
:10064C001846FFF7EBFD134B00221A601CE000224A
:10065C000821114800F0BDFE012230210E4800F0A7
:10066C00B8FE0E4B1B68002B10D10F4B1B680B4AAE
:10067C0013600A4B1B681846FFF7D0FD054B01228F
:10068C001A6003E000BF02E000BF00E000BF00BF43
:10069C0080BD00BFA40000200008014050000020D5
:1006AC005C000020540000205800002080B500AFF2
:1006BC00064B9B68012B07D12421054800F0A1FEB5
:1006CC000221192000F00AFB00BF80BDB8000020F9
:1006DC000008014080B500AF064B9B68012B07D189
:1006EC001221054800F08DFE0221192000F0F6FAC7
:1006FC0000BF80BDB80000200008014080B500AFED
:10070C00064B9B68012B07D10921054800F079FEA7
:10071C000221192000F0E2FA00BF80BDB8000020D1
:10072C000008014080B500AF864B1B68032B00F21C
:10073C00078101A252F823F0550700088D07000825
:10074C000308000877080008FFF7CCFEFFF73CFF12
:10075C000020FFF7E3FD0346012B40F0EA80794BC4
:10076C0001221A600220FFF7EBFC774B1B6818463E
:10077C00FFF754FD01223F21744800F02AFED8E017
:10078C00FFF794FF0020FFF7C9FD0346012B0FD1A3
:10079C006C4B02221A600320FFF7D2FC6C4B1B68D7
:1007AC001846FFF73BFD01223F21684800F011FE7F
:1007BC000120FFF7B3FD0346012B10D1624B1B68E0
:1007CC000133614A1360604B1B680A2B02D15E4BEC
:1007DC0000221A605C4B1B681846FFF71FFD0220B5
:1007EC00FFF79CFD0346012B40F0A580564B1B6880
:1007FC00584A13609FE0FFF76DFF0020FFF78EFD56
:10080C000346012B0FD14F4B03221A600420FFF734
:10081C0097FC514B1B681846FFF700FD01223F2146
:10082C004A4800F0D6FD0120FFF778FD0346012B66
:10083C0010D1474B1B680133454A1360444B1B686E
:10084C000A2B02D1424B00221A60414B1B681846FE
:10085C00FFF7E4FC0220FFF761FD0346012B6CD18E
:10086C003B4B1B683D4A136067E0FFF747FF0020D6
:10087C00FFF754FD0346012B39D1324B00221A608D
:10088C00354B1A68324B1B681A442F4B1B689A4223
:10089C000CD040212D4800F0B4FD2E4B05221A60DF
:1008AC002E4B02221A602E4B03221A602D4B002273
:1008BC001A602D4B00221A60294B1B682B4A1360BF
:1008CC00244B1B682A4A13600121642000F006FAAD
:1008DC00264B1B681846FFF733FC254B1B68184644
:1008EC00FFF79CFC01223F21184800F072FD01200B
:1008FC00FFF714FD0346012B10D1174B1B68013376
:10090C00154A1360144B1B680A2B02D1124B0022A0
:10091C001A60114B1B681846FFF780FC0220FFF78A
:10092C00FDFC0346012B0AD10B4B1B680C4A1360D0
:10093C0005E000BF04E000BF02E000BF00E000BF24
:10094C0000BF80BDA800002060000020000801400E
:10095C006400002054000020680000205800002093
:10096C005C000020A0000020A40000204C0000200F
:10097C005000002080B500AF00F02AFA00F018F803
:10098C0000F09EF800F050F8074801F08BF9642055
:10099C0000F08EF901223F21044800F01AFDFFF708
:1009AC0067FDFFF7BFFEFAE7C40000200008014016
:1009BC0080B590B000AF07F118032822002118462B
:1009CC0001F028FD3B1D00221A605A609A60DA6023
:1009DC001A610223BB610123BB621023FB6200235B
:1009EC007B6307F11803184600F024FD0346002B27
:1009FC0001D000F0C9F80F237B600023BB600023FB
:100A0C00FB6000233B6100237B613B1D00211846EA
:100A1C0000F090FF0346002B01D000F0B5F800BFAA
:100A2C004037BD4680BD000080B586B000AF07F1F1
:100A3C00080300221A605A609A60DA603B46002272
:100A4C001A605A601D4B4FF080421A601B4B41F6E6
:100A5C003F725A60194B00229A60184B0922DA60D7
:100A6C00164B00221A61154B00229A61134801F0B3
:100A7C00C9F80346002B01D000F086F84FF48053E0
:100A8C00BB6007F1080319460C4801F05FFA0346F6
:100A9C00002B01D000F078F800233B6000237B6032
:100AAC003B461946054801F027FC0346002B01D0B4
:100ABC0000F06AF800BF1837BD4680BDC4000020A6
:100ACC0080B586B000AF07F1080300221A605A60A7
:100ADC009A60DA60294B9B69284A43F004039361BE
:100AEC00264B9B6903F004037B607B68234B9B695B
:100AFC00224A43F008039361204B9B6903F00803DF
:100B0C003B603B68002247F6FF711D4800F061FC1A
:100B1C0000224FF47E711B4800F05BFC47F6FF731C
:100B2C00BB600123FB6000233B6102237B6107F167
:100B3C0008031946124800F0BBFA40F20743BB60A9
:100B4C000023FB6001233B6107F1080319460D48A4
:100B5C0000F0AEFA4FF47E73BB600123FB60002300
:100B6C003B6102237B6107F108031946054800F03D
:100B7C009FFA00BF1837BD4680BD00BF0010024071
:100B8C0000080140000C014080B400AF72B600BFF9
:100B9C00FEE7000080B485B000AF154B9B69144A8A
:100BAC0043F001039361124B9B6903F00103BB609B
:100BBC00BB680F4BDB690E4A43F08053D3610C4B7F
:100BCC00DB6903F080537B607B680A4B5B68FB60DE
:100BDC00FB6823F0E063FB60FB6843F08063FB6021
:100BEC00044AFB68536000BF1437BD4680BC704795
:100BFC00001002400000014080B584B000AF786066
:100C0C007B681B68B3F1804F13D10C4BDB690B4A2B
:100C1C0043F00103D361094BDB6903F00103FB6073
:100C2C00FB68002200211C2000F00BFA1C2000F0B5
:100C3C0024FA00BF1037BD4680BD00BF0010024033
:100C4C0080B400AFFEE780B400AFFEE780B400AF25
:100C5C00FEE780B400AFFEE780B400AFFEE780B4DF
:100C6C0000AF00BFBD4680BC704780B400AF00BF72
:100C7C00BD4680BC704780B400AF00BFBD4680BC91
:100C8C00704780B500AF00F0E9F800BF80BD0000F0
:100C9C0080B500AF024801F051F800BF80BD00BF25
:100CAC00C400002080B400AF00BFBD4680BC7047BC
:100CBC0080B584B000AF78600023FB6006E0F96873
:100CCC00786800F00BF8FB680133FB60FB68022BC3
:100CDC00F5DD00BF00BF1037BD4680BD80B483B0CA
:100CEC0000AF78603960074A3B68002142F8231056
:100CFC0005493B687A6841F8232000BF0C37BD4694
:100D0C0080BC7047B8000020AC00002080B483B0D9
:100D1C0000AF00237B601CE0124A7B6852F8233042
:100D2C00002B13DD0F4A7B6852F823305A1E0D49F5
:100D3C007B6841F823200B4A7B6852F82330002B48
:100D4C0004DC094A7B68012142F823107B680133DB
:100D5C007B607B68022BDFDD00BF00BF0C37BD461C
:100D6C0080BC7047AC000020B800002080B582B079
:100D7C0000AF7860FFF7CAFFFFF7EAFA00BF083749
:100D8C00BD4680BD0C480D490D4A002302E0D458E5
:100D9C00C4500433C4188C42F9D30A4A0A4C0023B9
:100DAC0001E013600432A242FBD3FFF77BFF01F09A
:100DBC000DFBFFF7DFFD70470000002078000020DE
:100DCC00702400087800002010010020FEE70000CD
:100DDC0080B500AF084B1B68074A43F01003136043
:100DEC00032000F023F90F2000F008F8FFF7D2FEE3
:100DFC000023184680BD00BF0020024080B582B0A1
:100E0C0000AF7860124B1A68124B1B7819464FF4DE
:100E1C007A73B3FBF1F3B2FBF3F3184600F03BF932
:100E2C000346002B01D001230EE07B680F2B0AD860
:100E3C00002279684FF0FF3000F003F9064A7B6816
:100E4C001360002300E0012318460837BD4680BD1F
:100E5C006C000020740000207000002080B400AFF3
:100E6C00054B1B781A46054B1B681344034A136049
:100E7C0000BFBD4680BC7047740000200C010020F0
:100E8C0080B400AF024B1B681846BD4680BC70474F
:100E9C000C01002080B485B000AF78607B6803F053
:100EAC000703FB600C4BDB68BB60BA684FF6FF03B3
:100EBC001340BB60FB681A02BB68134343F0BF636B
:100ECC0043F40033BB60044ABB68D36000BF1437E3
:100EDC00BD4680BC704700BF00ED00E080B400AFA1
:100EEC00044BDB681B0A03F007031846BD4680BCA5
:100EFC00704700BF00ED00E080B483B000AF034644
:100F0C00FB7197F90730002B0BDBFB7903F01F0209
:100F1C00064997F907305B09012000FA02F241F803
:100F2C00232000BF0C37BD4680BC704700E100E0B9
:100F3C0080B483B000AF03463960FB7197F907307A
:100F4C00002B0ADB3B68DAB20C4997F90730120127
:100F5C00D2B20B4483F800230AE03B68DAB20849AA
:100F6C00FB7903F00F03043B1201D2B20B441A7647
:100F7C0000BF0C37BD4680BC704700BF00E100E0ED
:100F8C0000ED00E080B489B000AFF860B9607A6021
:100F9C00FB6803F00703FB61FB69C3F10703042B38
:100FAC0028BF0423BB61FB690433062B02D9FB6900
:100FBC00033B00E000237B614FF0FF32BB6902FA78
:100FCC0003F3DA43BB681A407B699A404FF0FF3158
:100FDC007B6901FA03F3D9437B680B401343184632
:100FEC002437BD4680BC704780B582B000AF7860B6
:100FFC007B68013BB3F1807F01D301230FE00A4AE8
:10100C007B68013B53600F214FF0FF30FFF790FFDF
:10101C00054B00229A60044B07221A6000231846E5
:10102C000837BD4680BD00BF10E000E080B582B03F
:10103C0000AF78607868FFF72DFF00BF0837BD461A
:10104C0080BD80B586B000AF0346B9607A60FB7393
:10105C0000237B61FFF742FF78617A68B968786991
:10106C00FFF790FF024697F90F3011461846FFF72D
:10107C005FFF00BF1837BD4680BD80B582B000AFA2
:10108C000346FB7197F907301846FFF735FF00BF91
:10109C000837BD4680BD80B582B000AF78607868F7
:1010AC00FFF7A2FF034618460837BD4680BD000077
:1010BC0080B48BB000AF7860396000237B62002372
:1010CC003B6248E101227B6A02FA03F3FB613B6855
:1010DC001B68FA691340BB61BA69FB699A4240F01C
:1010EC0037813B685B68A34A93425ED0A14A934226
:1010FC0075D8A14A934258D09F4A93426FD89F4AC1
:10110C00934252D09D4A934269D89D4A93424CD007
:10111C009B4A934263D89B4A934246D0994A934246
:10112C005DD8122B2AD8122B59D801A252F823F0D1
:10113C00B711000891110008A3110008E51100086F
:10114C00EB110008EB110008EB110008EB11000883
:10115C00EB110008EB110008EB110008EB11000873
:10116C00EB110008EB110008EB110008EB11000863
:10117C00EB11000899110008AD110008824A934246
:10118C0013D02CE03B68DB683B6229E03B68DB68F2
:10119C0004333B6224E03B68DB6808333B621FE0AE
:1011AC003B68DB680C333B621AE03B689B68002BA6
:1011BC0002D104233B6213E03B689B68012B05D1F1
:1011CC0008233B627B68FA691A6109E008233B62D9
:1011DC007B68FA695A6103E000233B6200E000BFC0
:1011EC00BB69FF2B01D87B6801E07B6804337B6112
:1011FC00BB69FF2B02D87B6A9B0002E07B6A083B31
:10120C009B003B617B691A680F213B6901FA03F370
:10121C00DB431A40396A3B6901FA03F31A437B69D1
:10122C001A603B685B6803F08053002B00F09080E1
:10123C00564B9B69554A43F001039361534B9B6991
:10124C0003F00103BB60BB68514A7B6A9B08023305
:10125C0052F82330FB607B6A03F003039B000F22E0
:10126C0002FA03F3DB43FA681340FB607B68494ADC
:10127C0093420DD07B68484A934207D07B68474A1B
:10128C00934201D1022304E0032302E0012300E096
:10129C0000237A6A02F0030292009340FA68134327
:1012AC00FB603B497B6A9B080233FA6841F82320B8
:1012BC003B685B6803F48033002B06D0384B1A680C
:1012CC003749BB6913430B6006E0354B1A68BB69A1
:1012DC00DB43334913400B603B685B6803F400331A
:1012EC00002B06D02E4B5A682D49BB6913434B601B
:1012FC0006E02B4B5A68BB69DB43294913404B6012
:10130C003B685B6803F48013002B06D0244B9A686F
:10131C002349BB6913438B6006E0214B9A68BB6978
:10132C00DB431F4913408B603B685B6803F400137D
:10133C00002B06D01A4BDA681949BB691343CB60F2
:10134C0006E0174BDA68BB69DB4315491340CB60E9
:10135C007B6A01337B623B681A687B6A22FA03F36F
:10136C00002B7FF4AFAE00BF00BF2C37BD4680BC56
:10137C00704700BF00003210000031100000221036
:10138C00000021100000121000001110001002408B
:10139C000000014000080140000C01400010014019
:1013AC000004014080B485B000AF78600B467B80B0
:1013BC007B689A687B881340002B02D00123FB7357
:1013CC0001E00023FB73FB7B18461437BD4680BC41
:1013DC00704780B483B000AF78600B467B801346B7
:1013EC007B707B78002B03D07A887B681A6103E0D2
:1013FC007B881A047B681A6100BF0C37BD4680BC21
:10140C00704780B485B000AF78600B467B807B68FA
:10141C00DB68FB607A88FB6813401A04FB68D943CD
:10142C007B880B401A437B681A6100BF1437BD469A
:10143C0080BC704780B586B000AF78607B68002BAD
:10144C0001D101236CE27B681B6803F00103002BC4
:10145C0000F08780924B5B6803F00C03042B0CD0DC
:10146C008F4B5B6803F00C03082B12D18C4B5B6821
:10147C0003F48033B3F5803F0BD1894B1B6803F425
:10148C000033002B6CD07B685B68002B68D1012388
:10149C0046E27B685B68B3F5803F06D1804B1B68E6
:1014AC007F4A43F4803313602EE07B685B68002B2B
:1014BC000CD17B4B1B687A4A23F480331360784B36
:1014CC001B68774A23F4802313601DE07B685B68FC
:1014DC00B3F5A02F0CD1724B1B68714A43F48023D7
:1014EC0013606F4B1B686E4A43F4803313600BE040
:1014FC006B4B1B686A4A23F480331360684B1B6880
:10150C00674A23F4802313607B685B68002B13D03D
:10151C00FFF7B6FC386108E0FFF7B2FC02463B6906
:10152C00D31A642B01D90323FAE15D4B1B6803F436
:10153C000033002BF0D014E0FFF7A2FC386108E078
:10154C00FFF79EFC02463B69D31A642B01D9032397
:10155C00E6E1534B1B6803F40033002BF0D100E0A1
:10156C0000BF7B681B6803F00203002B63D04C4B5D
:10157C005B6803F00C03002B0BD0494B5B6803F04A
:10158C000C03082B1CD1464B5B6803F48033002BF7
:10159C0016D1434B1B6803F00203002B05D07B686C
:1015AC001B69012B01D00123BAE13D4B1B6823F0D1
:1015BC00F8027B685B69DB00394913430B603AE046
:1015CC007B681B69002B20D0364B01221A60FFF779
:1015DC0057FC386108E0FFF753FC02463B69D31A0D
:1015EC00022B01D903239BE12D4B1B6803F0020353
:1015FC00002BF0D02A4B1B6823F0F8027B685B6948
:10160C00DB00274913430B6015E0264B00221A60C0
:10161C00FFF736FC386108E0FFF732FC02463B6905
:10162C00D31A022B01D903237AE11D4B1B6803F05B
:10163C000203002BF0D17B681B6803F00803002B1E
:10164C003AD07B689B69002B19D0174B01221A608A
:10165C00FFF716FC386108E0FFF712FC02463B6905
:10166C00D31A022B01D903235AE10D4B5B6A03F009
:10167C000203002BF0D0012000F0A6FA1CE00A4B6C
:10168C0000221A60FFF7FCFB38610FE0FFF7F8FB54
:10169C0002463B69D31A022B08D9032340E100BF51
:1016AC000010024000004242800442429E4B5B6AA2
:1016BC0003F00203002BE9D17B681B6803F00403E1
:1016CC00002B00F0A6800023FB75974BDB6903F021
:1016DC008053002B0DD1944BDB69934A43F080531C
:1016EC00D361914BDB6903F08053BB60BB68012372
:1016FC00FB758E4B1B6803F48073002B18D18B4B3E
:10170C001B688A4A43F480731360FFF7B9FB386196
:10171C0008E0FFF7B5FB02463B69D31A642B01D9ED
:10172C000323FDE0814B1B6803F48073002BF0D086
:10173C007B68DB68012B06D17B4B1B6A7A4A43F032
:10174C00010313622DE07B68DB68002B0CD1764B18
:10175C001B6A754A23F001031362734B1B6A724AAE
:10176C0023F0040313621CE07B68DB68052B0CD1AF
:10177C006D4B1B6A6C4A43F0040313626A4B1B6A81
:10178C00694A43F0010313620BE0674B1B6A664A1C
:10179C0023F001031362644B1B6A634A23F00403B6
:1017AC0013627B68DB68002B15D0FFF769FB38618F
:1017BC000AE0FFF765FB02463B69D31A41F2883217
:1017CC00934201D90323ABE0574B1B6A03F002038E
:1017DC00002BEED014E0FFF753FB38610AE0FFF763
:1017EC004FFB02463B69D31A41F28832934201D92E
:1017FC00032395E04C4B1B6A03F00203002BEED144
:10180C00FB7D012B05D1484BDB69474A23F0805304
:10181C00D3617B68DB69002B00F08180424B5B68F5
:10182C0003F00C03082B61D07B68DB69022B46D1DB
:10183C003F4B00221A60FFF723FB386108E0FFF7EB
:10184C001FFB02463B69D31A022B01D9032367E025
:10185C00354B1B6803F00073002BF0D17B681B6ABF
:10186C00B3F5803F08D1304B5B6823F400327B68C2
:10187C009B682D4913434B602B4B5B6823F474120C
:10188C007B68196A7B685B6A0B43274913434B607F
:10189C00274B01221A60FFF7F3FA386108E0FFF7D3
:1018AC00EFFA02463B69D31A022B01D9032337E026
:1018BC001D4B1B6803F00073002BF0D02FE01C4B6A
:1018CC0000221A60FFF7DCFA386108E0FFF7D8FA5B
:1018DC0002463B69D31A022B01D9032320E0124B99
:1018EC001B6803F00073002BF0D118E07B68DB69F8
:1018FC00012B01D1012313E00B4B5B68FB60FB68F0
:10190C0003F480327B681B6A9A4206D1FB6803F4AD
:10191C0070127B685B6A9A4201D0012300E00023BD
:10192C0018461837BD4680BD0010024000700040BC
:10193C006000424280B584B000AF786039607B684B
:10194C00002B01D10123D0E06A4B1B6803F0070385
:10195C003A689A4210D9674B1B6823F00702654915
:10196C003B6813430B60634B1B6803F007033A6837
:10197C009A4201D00123B8E07B681B6803F0020394
:10198C00002B20D07B681B6803F00403002B05D0D0
:10199C00594B5B68584A43F4E06353607B681B689F
:1019AC0003F00803002B05D0534B5B68524A43F4F9
:1019BC0060535360504B5B6823F0F0027B689B686C
:1019CC004D4913434B607B681B6803F00103002BEC
:1019DC0040D07B685B68012B07D1474B1B6803F435
:1019EC000033002B15D101237FE07B685B68022B51
:1019FC0007D1414B1B6803F00073002B09D1012365
:101A0C0073E03D4B1B6803F00203002B01D1012353
:101A1C006BE0394B5B6823F003027B685B683649EB
:101A2C0013434B60FFF72CFAF8600AE0FFF728FA33
:101A3C000246FB68D31A41F28832934201D9032340
:101A4C0053E02D4B5B6803F00C027B685B689B00DA
:101A5C009A42EBD1274B1B6803F007033A689A4272
:101A6C0010D2244B1B6823F0070222493B68134316
:101A7C000B60204B1B6803F007033A689A4201D0B5
:101A8C00012332E07B681B6803F00403002B08D0B1
:101A9C00194B5B6823F4E0627B68DB6816491343DF
:101AAC004B607B681B6803F00803002B09D0124BBA
:101ABC005B6823F460527B681B69DB000E4913439F
:101ACC004B6000F021F802460B4B5B681B0903F0DE
:101ADC000F030A49CB5C22FA03F3094A1360094B42
:101AEC001B681846FFF78AF9002318461037BD46C5
:101AFC0080BD00BF002002400010024058240008A6
:101B0C006C0000207000002090B48AB000AF2A4B0B
:101B1C003C1D0FCB84E80F0040F201233B800023D7
:101B2C00FB610023BB6100237B6200237B610023EC
:101B3C003B62224B5B68FB61FB6903F00C03042BDB
:101B4C0002D0082B03D02DE01D4B3B622DE0FB692E
:101B5C009B0C03F00F0307F12802134413F8243CE9
:101B6C007B61FB6903F48033002B13D0134B5B6850
:101B7C005B0C03F0010307F12802134413F8283C13
:101B8C00BB617B690E4A02FB03F2BB69B2FBF3F348
:101B9C007B6204E07B690B4A02FB03F37B627B6A8A
:101BAC003B6202E0064B3B6200BF3B6A184628379B
:101BBC00BD4690BC704700BF48240008001002408E
:101BCC0000127A0000093D0080B485B000AF786047
:101BDC000A4B1B680A4AA2FB03235B0A7A6802FBC6
:101BEC0003F3FB6000BFFB685A1EFA60002BF9D1AF
:101BFC0000BF00BF1437BD4680BC70476C0000208E
:101C0C00D34D621080B582B000AF78607B68002B3A
:101C1C0001D1012341E07B6893F83D30DBB2002B0E
:101C2C0006D17B68002283F83C207868FEF7E4FF3D
:101C3C007B68022283F83D207B681A687B6804333A
:101C4C001946104600F06AFA7B68012283F8462098
:101C5C007B68012283F83E207B68012283F83F20B9
:101C6C007B68012283F840207B68012283F84120A5
:101C7C007B68012283F842207B68012283F8432091
:101C8C007B68012283F844207B68012283F845207D
:101C9C007B68012283F83D20002318460837BD4697
:101CAC0080BD000080B485B000AF78607B6893F88D
:101CBC003D30DBB2012B01D0012335E07B680222E1
:101CCC0083F83D207B681B68DA687B681B6842F0F0
:101CDC000102DA607B681B68164A934209D07B6864
:101CEC001B68B3F1804F04D07B681B68124A934287
:101CFC0011D17B681B689B6803F00703FB60FB68D2
:101D0C00062B10D07B681B681A687B681B6842F036
:101D1C0001021A6007E07B681B681A687B681B6805
:101D2C0042F001021A60002318461437BD4680BCED
:101D3C00704700BF002C01400004004080B582B009
:101D4C0000AF78607B681B681B6903F00203022BF1
:101D5C0022D17B681B68DB6803F00203022B1BD1CA
:101D6C007B681B686FF002021A617B6801221A778C
:101D7C007B681B689B6903F00303002B03D0786816
:101D8C0000F0B1F905E0786800F0A4F9786800F08B
:101D9C00B3F97B6800221A777B681B681B6903F018
:101DAC000403042B22D17B681B68DB6803F004035B
:101DBC00042B1BD17B681B686FF004021A617B68D3
:101DCC0002221A777B681B689B6903F44073002B13
:101DDC0003D0786800F087F905E0786800F07AF9AC
:101DEC00786800F089F97B6800221A777B681B6899
:101DFC001B6903F00803082B22D17B681B68DB6886
:101E0C0003F00803082B1BD17B681B686FF00802DA
:101E1C001A617B6804221A777B681B68DB6903F004
:101E2C000303002B03D0786800F05DF905E07868B7
:101E3C0000F050F9786800F05FF97B6800221A779F
:101E4C007B681B681B6903F01003102B22D17B6885
:101E5C001B68DB6803F01003102B1BD17B681B681D
:101E6C006FF010021A617B6808221A777B681B6876
:101E7C00DB6903F44073002B03D0786800F033F96E
:101E8C0005E0786800F026F9786800F035F97B6891
:101E9C0000221A777B681B681B6903F00103012B76
:101EAC000ED17B681B68DB6803F00103012B07D1A3
:101EBC007B681B686FF001021A617868FEF756FFA9
:101ECC007B681B681B6903F08003802B0ED17B6839
:101EDC001B68DB6803F08003802B07D17B681B68D1
:101EEC006FF080021A61786800F067FA7B681B68F3
:101EFC001B6903F04003402B0ED17B681B68DB6829
:101F0C0003F04003402B07D17B681B686FF0400245
:101F1C001A61786800F0F9F87B681B681B6903F09C
:101F2C002003202B0ED17B681B68DB6803F0200399
:101F3C00202B07D17B681B686FF020021A61786830
:101F4C0000F032FA00BF0837BD4680BD80B584B0C2
:101F5C0000AF786039607B6893F83C30012B01D17D
:101F6C000223B3E07B68012283F83C207B680222C9
:101F7C0083F83D207B681B689B68FB60FB6823F043
:101F8C007703FB60FB6823F47F43FB607B681B6873
:101F9C00FA689A603B681B68B3F5005F3ED0B3F5F6
:101FAC00005F00F28780B3F5805F00F08580B3F5A9
:101FBC00805F7FD8702B1AD0702B7BD8602B50D0C1
:101FCC00602B77D8502B3CD0502B73D8402B58D04B
:101FDC00402B6FD8302B64D0302B6BD8202B60D09B
:101FEC00202B67D8002B5CD0102B5AD062E07B687A
:101FFC0018683B6899683B685A683B68DB6800F076
:10200C005CF97B681B689B68FB60FB6843F077039B
:10201C00FB607B681B68FA689A604EE07B68186806
:10202C003B6899683B685A683B68DB6800F045F987
:10203C007B681B689A687B681B6842F480429A60D4
:10204C003BE07B6818683B6859683B68DB681A465C
:10205C0000F0BCF87B681B685021184600F013F99F
:10206C002BE07B6818683B6859683B68DB681A464C
:10207C0000F0DAF87B681B686021184600F003F961
:10208C001BE07B6818683B6859683B68DB681A463C
:10209C0000F09CF87B681B684021184600F0F3F8B0
:1020AC000BE07B681A683B681B681946104600F009
:1020BC00EAF802E000BF00E000BF7B68012283F871
:1020CC003D207B68002283F83C2000231846103703
:1020DC00BD4680BD80B483B000AF786000BF0C37C4
:1020EC00BD4680BC704780B483B000AF786000BF41
:1020FC000C37BD4680BC704780B483B000AF7860AD
:10210C0000BF0C37BD4680BC704780B483B000AFB5
:10211C00786000BF0C37BD4680BC704780B485B07A
:10212C0000AF786039607B681B68FB607B68254A70
:10213C00934207D07B68B3F1804F03D07B68224A6F
:10214C00934208D1FB6823F07003FB603B685B682B
:10215C00FA681343FB607B681A4A934207D07B688A
:10216C00B3F1804F03D07B68174A934208D1FB68C8
:10217C0023F44073FB603B68DB68FA681343FB6035
:10218C00FB6823F080023B685B691343FB607B6850
:10219C00FA681A603B689A687B68DA623B681A686E
:1021AC007B689A627B68074A934203D13B681A6941
:1021BC007B681A637B6801225A6100BF1437BD46E5
:1021CC0080BC7047002C01400004004080B487B0F4
:1021DC0000AFF860B9607A60FB681B6A7B61FB68D2
:1021EC001B6A23F00102FB681A62FB689B693B6166
:1021FC003B6923F0F0033B617B681B013A69134395
:10220C003B617B6923F00A037B617A69BB681343EA
:10221C007B61FB683A699A61FB687A691A6200BF54
:10222C001C37BD4680BC704780B487B000AFF860E7
:10223C00B9607A60FB681B6A23F01002FB681A62B3
:10224C00FB689B697B61FB681B6A3B617B6923F4C0
:10225C0070437B617B681B037A6913437B613B6929
:10226C0023F0A0033B61BB681B013A6913433B613C
:10227C00FB687A699A61FB683A691A6200BF1C377D
:10228C00BD4680BC704780B485B000AF78603960C3
:10229C007B689B68FB60FB6823F07003FB603A680B
:1022AC00FB68134343F00703FB607B68FA689A6092
:1022BC0000BF1437BD4680BC704780B487B000AFF8
:1022CC00F860B9607A603B60FB689B687B617B69F6
:1022DC0023F47F437B613B681A027B681A43BB681B
:1022EC0013437A6913437B61FB687A699A6000BF78
:1022FC001C37BD4680BC704780B485B000AF786099
:10230C0039607B6893F83C30012B01D1022341E00A
:10231C007B68012283F83C207B68022283F83D20F5
:10232C007B681B685B68FB607B681B689B68BB6099
:10233C00FB6823F07003FB603B681B68FA6813436F
:10234C00FB607B681B68FA685A607B681B68144AE0
:10235C00934209D07B681B68B3F1804F04D07B6833
:10236C001B68104A93420CD1BB6823F08003BB60FE
:10237C003B685B68BA681343BB607B681B68BA68D0
:10238C009A607B68012283F83D207B68002283F8E9
:10239C003C20002318461437BD4680BC704700BF54
:1023AC00002C01400004004080B483B000AF786082
:1023BC0000BF0C37BD4680BC704780B483B000AF03
:1023CC00786000BF0C37BD4680BC704770B50026E6
:1023DC000C4D0D4C641BA410A64209D100F022F840
:1023EC0000260A4D0A4C641BA410A64205D170BDF0
:1023FC0055F8043B98470136EEE755F8043B9847EF
:10240C000136F2E7682400086824000868240008F4
:10241C006C24000803460244934200D1704703F831
:10242C00011BF9E7F8B500BFF8BC08BC9E46704725
:0C243C00F8B500BFF8BC08BC9E46704715
:1024480002030405060708090A0B0C0D0E0F1010ED
:10245800000000000000000001020304060708094C
:042468003101000836
:04246C000D01000856
:10247000010000000000000000000000010000005A
:10248000000000000000000001000000000000004B
:10249000000000000100000000000000000000003B
:1024A0000100000002000000040000000004000021
:1024B00064000000000000000000000003000000B5
:1024C00005000000050000000200000003000000FD
:1024D0000500000002000000030000000024F400DA
:0824E0001000000001000000E3
:0400000508000D9151
:00000001FF
